:100000000C9463000C948B000C948B000C941E05D4
:100010000C941E050C941E050C948B000C948B0004
:100020000C948B000C948B000C948B000C948B0024
:100030000C948B000C948B000C948B000C948B0014
:100040000C947C040C948B000C94EC040C94C6046B
:100050000C948B000C948B000C948B000C948B00F4
:100060000C948B000C948B000000000024002700EF
:100070002A0000000008000201000003040700003D
:1000800000000000000000000000230026002900FE
:1000900000000000250028002B00040404040404D0
:1000A0000404020202020202030303030303010227
:1000B00004081020408001020408102001020408F6
:1000C00010209605580911241FBECFEFD8E0DEBFDF
:1000D000CDBF22E0A8E5B1E001C01D92AB36B2076A
:1000E000E1F711E0A0E0B1E0EAE6FAE102C0059034
:1000F0000D92A835B107D9F710E0C2E6D0E004C0F0
:100100002197FE010E94160BC136D107C9F70E9444
:1001100041060C94280D0C94000090E0FC01EE5870
:10012000FF4F2491FC01E255FF4F3491FC01E6564C
:10013000FF4FE491EE23C9F0222339F0233001F17F
:10014000A8F4213019F1223029F1F0E0EE0FFF1F61
:10015000E057FF4FA591B4918FB7F894EC916111DE
:1001600026C030953E233C938FBF08952730A9F0D9
:100170002830C9F0243049F7809180008F7D03C07A
:10018000809180008F7780938000DFCF84B58F7758
:1001900084BDDBCF84B58F7DFBCF8091B0008F779E
:1001A0008093B000D2CF8091B0008F7DF9CF3E2BED
:1001B000DACFCF93DF9390E0FC01E255FF4F24911B
:1001C00086569F4FFC0184918823D1F090E0880FE0
:1001D000991FFC01E859FF4FA591B491FC01E0572C
:1001E000FF4FC591D49161110EC09FB7F8948C91C7
:1001F000E22FE0958E238C932881E223E8839FBF32
:10020000DF91CF9108958FB7F894EC91E22BEC93A6
:100210008FBFF6CF3FB7F8948091A1019091A201D2
:10022000A091A301B091A40126B5A89B05C02F3FC2
:1002300019F00196A11DB11D3FBFBA2FA92F982F0C
:100240008827BC01CD01620F711D811D911D42E007
:10025000660F771F881F991F4A95D1F70895AF92AF
:10026000BF92CF92DF92EF92FF920F931F93CF93A3
:10027000DF936C017B018B01040F151FEB015E0105
:10028000AE18BF08C017D10759F06991D601ED919A
:10029000FC910190F081E02DC6010995892B79F739
:1002A000C501DF91CF911F910F91FF90EF90DF90EB
:1002B000CF90BF90AF900895FC01538D448D252FB2
:1002C00030E0842F90E0821B930B541710F0CF96F0
:1002D000089501970895FC01918D828D981761F022
:1002E000A28DAE0FBF2FB11D5D968C91928D9F5F39
:1002F0009F73928F90E008958FEF9FEF08952FB72F
:10030000F8948091A5019091A601A091A701B091C8
:10031000A8012FBF8093B1019093B201A093B301C4
:10032000B093B40189EA91E00E946B0197FF26C067
:100330002FB7F8948091A5019091A601A091A701F3
:10034000B091A8012FBF4091B1015091B2016091CD
:10035000B3017091B401841B950BA60BB70B4091B0
:10036000AD015091AE016091AF017091B001841761
:100370009507A607B707B0F28FEF9FEF0895FC012E
:10038000918D828D981731F0828DE80FF11D858D4A
:1003900090E008958FEF9FEF0895FC01918D228DDD
:1003A000892F90E0805C9F4F821B91098F73992762
:1003B000089589EA91E00E94CD0121E0892B09F49A
:1003C00020E0822F089580E090E0892B29F00E94A0
:1003D000D90181110C9400000895FC01A48DA80F8F
:1003E000B92FB11DA35ABF4F2C91848D90E0019677
:1003F0008F739927848FA689B7892C93A089B18997
:100400008C91837080648C93938D848D981306C037
:100410000288F389E02D80818F7D80830895EF929B
:10042000FF920F931F93CF93DF93EC0181E0888FAE
:100430009B8D8C8D98131AC0E889F989808185FF7E
:1004400015C09FB7F894EE89FF896083E889F98920
:1004500080818370806480839FBF81E090E0DF9122
:10046000CF911F910F91FF90EF900895F62E0B8D75
:1004700010E00F5F1F4F0F731127E02E8C8D8E1130
:100480000CC00FB607FCFACFE889F989808185FF97
:10049000F5CFCE010E94ED01F1CFEB8DEC0FFD2FDA
:1004A000F11DE35AFF4FF0829FB7F8940B8FEA8952
:1004B000FB8980818062CFCFCF93DF93EC01888D61
:1004C0008823B9F0AA89BB89E889F9898C9185FDCF
:1004D00003C0808186FD0DC00FB607FCF7CF8C915D
:1004E00085FFF2CF808185FFEDCFCE010E94ED0127
:1004F000E9CFDF91CF91089520919A0130919B012E
:100500002817390771F490919801809199019817F3
:1005100041F0E0919801F0E0E85AFE4F808190E0D0
:1005200008958FEF9FEF08950895EF92FF920F9334
:100530001F93CF93DF93DC015C96ED90FC905D9769
:10054000E114F10479F481E090E013969C938E938A
:10055000129790E080E0DF91CF911F910F91FF9073
:10056000EF9008955196ED91FC91529750968C9191
:100570005097982F90950FB75E962C915E97122FFB
:10058000127021FD6095F8942081112319F1282B18
:100590002083E7012197F1F728E0462F50E03081D2
:1005A00060FF1AC0382B3083E7012197F1F7BA01B9
:1005B00075956795215089F7112381F080818923F2
:1005C00080830FBF5C968D919C910197F1F781E03C
:1005D00090E0C1CF2923DCCF3923E5CF9081892B4F
:1005E000EFCF20919A0130919B012817390771F4C0
:1005F000809199012091980190E0805C9F4F821B2F
:10060000910960E470E00E94EE0A089590E080E0B5
:10061000089520919A0130919B0128173907B9F468
:100620009091980180919901981789F0E091980133
:10063000F0E0E85AFE4F80812091980130E02F5F72
:100640003F4F2F7333272093980190E008958FEF49
:100650009FEF089590E080E00895FC010190002054
:10066000E9F73197AF01481B590BBC0189EA91E0CA
:100670000C942F018F929F92AF92BF920F931F9372
:10068000CF93DF93CDB7DEB7A1970FB6F894DEBF57
:100690000FBECDBF19A2423008F44AE08E010F5DB3
:1006A0001F4F842E912CB12CA12CA50194010E94E6
:1006B0007B0AE62FB901CA01EA30F4F4E05DD80103
:1006C000EE938D01232B242B252B79F790E080E0EE
:1006D000109719F0CD010E942D03A1960FB6F89442
:1006E000DEBF0FBECDBFDF91CF911F910F91BF90A5
:1006F000AF909F908F900895E95CE1CFCF92DF9209
:10070000EF92FF92CF93DF936B017C016DE289EA58
:1007100091E00E940F02EC0166277727CB016C194C
:100720007D098E099F094AE00E943A038C0F9D1FA4
:10073000DF91CF91FF90EF90DF90CF9008950F93CE
:100740001F93CF93DF93EC0188819981009759F033
:100750002A813B812617370730F081E0DF91CF9166
:100760001F910F9108958B016F5F7F4F0E94410C85
:10077000009759F0998388831B830A832C813D81DC
:10078000232B59F7FC011082E8CF80E0E7CFCF930D
:10079000DF93EC0188819981009711F00E94B80BDA
:1007A000198218821D821C821B821A82DF91CF91CE
:1007B0000895EF92FF920F931F93CF93DF938C01D5
:1007C0007B01EB0109900020E9F72197C61BD70BAD
:1007D000BE010E949F03811109C0C801DF91CF9122
:1007E0001F910F91FF90EF900C94C703F801D583F0
:1007F000C483B70180819181DF91CF911F910F91C7
:10080000FF90EF900C94070D9F92AF92BF92CF9202
:10081000DF92EF92FF920F931F93CF93DF93EC0140
:100820006B015A0179012417350720F48B2D5901EA
:10083000E42EF82E198218821B821A821D821C82D5
:100840006FE371E0CE010E94D903D60114960D9199
:100850001C91A016B10658F5E016F10608F48701C0
:10086000D601ED91FC911197E00FF11F908010825D
:10087000ED90FC90EA0CFB1CE114F10471F0F7011F
:1008800001900020E9F731975F01AE18BF08B5016C
:10089000CE010E949F03811117C0CE010E94C703A1
:1008A000F60180819181080F191FD8019C92CE0119
:1008B000DF91CF911F910F91FF90EF90DF90CF903C
:1008C000BF90AF909F900895BD82AC82B7018881A0
:1008D00099810E94070DE4CFFC01808191810097EE
:1008E00011F00C94B80B089540E150E070E060E026
:1008F0000E947409CB0108951F920F920FB60F92B8
:1009000011242F933F938F939F93AF93BF93809125
:10091000A5019091A601A091A701B091A8013091E5
:10092000A00123E0230F2D3758F50196A11DB11D1D
:100930002093A0018093A5019093A601A093A70105
:10094000B093A8018091A1019091A201A091A3016F
:10095000B091A4010196A11DB11D8093A1019093B6
:10096000A201A093A301B093A401BF91AF919F9165
:100970008F913F912F910F900FBE0F901F90189560
:1009800026E8230F0296A11DB11DD2CF1F920F9210
:100990000FB60F9211242F933F934F935F936F9352
:1009A0007F938F939F93AF93BF93EF93FF9389EAC6
:1009B00091E00E94ED01FF91EF91BF91AF919F9166
:1009C0008F917F916F915F914F913F912F910F90F8
:1009D0000FBE0F901F9018951F920F920FB60F9297
:1009E00011242F938F939F93EF93FF93E091B9017D
:1009F000F091BA018081E091BF01F091C00182FDC8
:100A00001BC090818091C2018F5F8F732091C301C1
:100A1000821741F0E091C201F0E0E755FE4F958F5B
:100A20008093C201FF91EF919F918F912F910F9031
:100A30000FBE0F901F9018958081F4CF1F920F92D8
:100A40000FB60F9211242F933F934F935F936F93A1
:100A50007F938F939F93AF93BF93EF93FF93E09117
:100A60009A01F0919B01309749F0A685B78585855D
:100A7000968D91FF14C09C918923A1F4FF91EF9171
:100A8000BF91AF919F918F917F916F915F914F91A6
:100A90003F912F910F900FBE0F901F9018959C9132
:100AA000892361F7A389B4899C91858980958923DD
:100AB0008C93868997890197F1F7608D718DA68552
:100AC000B785558538E020E0CB010197F1F7822FFB
:100AD00090E095958795282F4C91452309F0206843
:100AE000315091F7868D81FD20958091990190E09C
:100AF00001968F73992730919801381799F0A0913A
:100B00009901B0E0A85ABE4F2C9380939901828D31
:100B1000938D0197F1F7A389B4898C919589892BDD
:100B20008C93ACCF868D8160868FF1CF1092AC0113
:100B30001092AB0188EE93E0A0E0B0E08093AD01AD
:100B40009093AE01A093AF01B093B0012AE031E0E1
:100B50003093AA012093A90125EC30E03093B6012F
:100B60002093B50124EC30E03093B8012093B70115
:100B700020EC30E03093BA012093B90121EC30E051
:100B80003093BC012093BB0122EC30E03093BE01D6
:100B90002093BD0126EC30E03093C0012093BF01CB
:100BA0001092C2011092C3011092C4011092C501AB
:100BB000109249021092480280934A0290934B028D
:100BC000A0934C02B0934D028CE191E090934702C8
:100BD0008093460210925D0210925C0210925F02B6
:100BE00010925E02109261021092600210926302F3
:100BF00010926202609164026E7F6D7F6093640266
:100C00006695617081E068278BE00E948D0061E04D
:100C10008BE00E94D900E9EBF0E0E491E09356020A
:100C2000E5EAF0E0E491F0E0EE0FFF1FE057FF4F40
:100C300085919491909358028093570260E08AE0E6
:100C40000E94D9008091640281FD04C061E08AE0C5
:100C50000E948D008AE080935202E8EBF0E0E4917C
:100C6000E0935302E4EAF0E0E491F0E0EE0FFF1FBE
:100C7000EA57FF4F859194919093550280935402C7
:100C80000895CF93DF93CDB7DEB72C970FB6F894C6
:100C9000DEBF0FBECDBF789484B5826084BD84B5BD
:100CA000816084BD85B5826085BD85B5816085BD67
:100CB00080916E00816080936E001092810080911F
:100CC00081008260809381008091810081608093A7
:100CD0008100809180008160809380008091B100CC
:100CE00084608093B1008091B00081608093B000F7
:100CF00080917A00846080937A0080917A0082608B
:100D000080937A0080917A00816080937A0080914C
:100D10007A00806880937A001092C10061E085E0DB
:100D20000E94D90060E085E00E948D000E940A01C7
:100D30004B015C0128EEC22E23E0D22EE12CF12CD7
:100D40000E940A01681979098A099B09683E734063
:100D500081059105A8F321E0C21AD108E108F10844
:100D600038EE830E33E0931EA11CB11CC114D104D4
:100D7000E104F10429F7E091B901F091BA0182E0B0
:100D80008083E091B501F091B6011082E091B70146
:100D9000F091B8018FEC80831092C101E091BD0108
:100DA000F091BE0186E08083E091BB01F091BC012F
:100DB000808180618083E091BB01F091BC018081E2
:100DC00088608083E091BB01F091BC0180818068E4
:100DD0008083E091BB01F091BC0180818F7D808395
:100DE0008AE291E00E942D038DE391E00E942D03A1
:100DF000109261021092600210925F0210925E02E5
:100E000010925D0210925C028DE991E09093630272
:100E10008093620290915202963108F047C02DEB08
:100E200030E030935D0220935C022BE931E0309397
:100E30005F0220935E022CE231E030936102209346
:100E400060022091680084E0983048F031E09E30E4
:100E500008F430E081E001C0880F3A95EAF7822B70
:100E6000809368002DE630E0983050F02BE630E0BB
:100E70009E3030F02CE630E0963110F030E020E08B
:100E800030935A0220935902292F30E0983008F00D
:100E90007CC081E001C0880F9A95EAF780935B02DD
:100EA00080916202909163020197F1F78091600254
:100EB00090916102892B49F1E0919A01F0919B0197
:100EC00032E0E634F30709F1309739F0A389B489A9
:100ED0009C918589809589238C93809164028E7F73
:100EE00080936402109299011092980186E492E036
:100EF00090939B0180939A01E0915902F0915A02DC
:100F0000808190915B02892B808361E085E00E9463
:100F10008D0080E0482E80E0582ECC24CA94DC2C32
:100F200089EA91E00E94CD01892B09F444C1188619
:100F30001F821A8619861C861B866FE371E0CE011C
:100F400007960E94D9030E947F0197FD2BC08A302B
:100F5000910541F189831A820B851C850F5F1F4F14
:100F6000B801CE0107960E949F03882361F32F8169
:100F700038858B859C85BE016F5F7F4F820F931FE5
:100F80000E94070D1C870B87DECF9E3040F428504F
:100F9000310981E001C0880F2A95EAF77FCF2E50F2
:100FA0003109F7CF80E491E00E942D038DE391E0B9
:100FB0000E942D034B855C856F81788589EA91E0DD
:100FC0000E942F018DE391E00E942D031A82198265
:100FD0001C821B821E821D826CE471E0CE01019690
:100FE0000E94D9038B859C852D813E817C01E21A6C
:100FF000F30A2115310541F1009731F1821793076A
:1010000018F1E816F90620F07C0121E0E21AF10857
:10101000AF80B88469807A80C5010FEF1FEF45016A
:101020008E0C9F1C8816990688F0B3010E940E0D45
:10103000009761F09C012A193B09E216F30608F4B7
:10104000980101968901EECF0FEF1FEFCE010196B7
:101050000E946C040F3F1F4F09F489C01A82198245
:101060001C821B821E821D826FE471E0CE010196FC
:101070000E94D9038B859C850B9708F4A8C00F812B
:10108000188569817A81C8010A960E940E0D009721
:1010900009F49DC09C01201B310B8901CE010196F2
:1010A0000E946C040F3F100709F494C02CE030E05C
:1010B0004AE050E0BE01695F7F4FCE0101960E9479
:1010C000040489819A810E9474048C01CE010196E6
:1010D0000E946C042DE230E04BE250E0BE01695FFB
:1010E0007F4FCE0101960E94040489819A810E945B
:1010F00074047C01CE0101960E946C042DE130E065
:101100004BE150E0BE01695F7F4FCE0101960E9426
:10111000040489819A810E94740490939F018093B2
:101120009E01CE0101960E946C042EE330E04CE358
:1011300050E0BE01695F7F4FCE0101960E9404041A
:1011400089819A810E94740490939D0180939C01EF
:10115000CE0101960E946C040E151F0541F4013565
:10116000110509F08FC0D0929D01C0929C01609141
:101170009E0170919F01072E000C880B990B97FF21
:101180008FC00E947E0384E591E00E942D03609150
:101190009C0170919D01072E000C880B990B97FF05
:1011A00083C00E947E038DE391E00E942D03CE0157
:1011B00007960E946C044114510409F4B1CE0E94B8
:1011C000D901882309F4ACCE0E940000A9CE0FEF0C
:1011D0001FEF64CF1A8219821C821B821E821D821D
:1011E0006FE471E0CE0101960E94D9038B859C8546
:1011F000892B61F0EF80F88469817A81C7010E94B0
:101200000E0D009719F08C010E191F09CE010196E1
:101210000E946C040F3F1007D1F12CE030E04AE04F
:1012200050E0BE01695F7F4FCE0101960E94040429
:1012300089819A810E9474047C01CE0101960E94EA
:101240006C042DE130E04BE150E0BE01695F7F4F5F
:10125000CE0101960E94040489819A810E9474043F
:101260008C0190939F0180939E01CE0101960E9474
:101270006C0421E5E216F10409F475CF10939D0189
:1012800000939C01D0929F01C0929E0170CF109359
:101290009F0100939E0110939D0100939C0167CFD5
:1012A0004AE00E943A036FCF4AE00E943A037BCFA4
:1012B0008CE191E0909347028093460280919A01DD
:1012C00090919B018654924071F4E0915902F09103
:1012D0005A02908180915B028095892380831092CD
:1012E0009B0110929A010895B0E0A0E0EAE7F9E0CE
:1012F0000C94A90A5C016B017A016115710519F062
:10130000FB0191838083E114F10449F0C701029746
:10131000839728F060E070E0CB019CC05E01E5019E
:101320002196F5011081812F90E00E945F0A892BA0
:10133000A9F71D3209F056C02196F501118101E08F
:10134000E114F10409F4AEC0F0E1EF16F10409F084
:101350008EC0103341F488818F7D883509F083C0B9
:10136000198122960260E0E1EE2EF12C88248A9405
:10137000982CA82CFFE0BF2E20E060E070E0CB01AD
:1013800027010F2C000C66087708FE0150ED352E62
:10139000310E39E0331538F43FEB310F3A31A0F517
:1013A00049EC342E310E3E141F04BCF52F3FB9F02A
:1013B00086169706A806B90670F1A30192010E944D
:1013C0006B0A232D30E050E040E0620F731F841F52
:1013D000951F6217730784079507E8F021E02196AF
:1013E0001081D3CF1B3221F4E5012296F501118142
:1013F00000E0A6CF78E0E72EF12C88248A94982C80
:10140000A82C6FE1B62EB8CF3FE9310F3A3128F45E
:1014100039EA332EC7CF2FEFE2CFC114D10431F018
:101420002223E9F02197F601D183C08300FF07C092
:1014300090958095709561957F4F8F4F9F4F2F3F6F
:1014400049F482E290E090936602809365026FEF28
:101450007FEFCB01CDB7DEB7E1E10C94C50A01FF08
:10146000E5CF2297E0CF10E3E114F10419F23AE05E
:10147000E316F104E9F080E1E816F10409F473CF12
:10148000E8E0EE16F10409F4B8CF6FEF7FEFCB017F
:1014900097010F2C000C440B550B0E947B0A49014D
:1014A0005A016ACF103309F456CF9AE0E92EF12C95
:1014B00089E9882E982CA82C89E1B82E5DCF91114E
:1014C0000C94680A803219F089508550C8F7089545
:1014D000992788270895DB018F939F930E949D0A87
:1014E000BF91AF91A29F800D911DA39F900DB29FC0
:1014F000900D11240895A1E21A2EAA1BBB1BFD0119
:101500000DC0AA1FBB1FEE1FFF1FA217B307E407E2
:10151000F50720F0A21BB30BE40BF50B661F771F3A
:10152000881F991F1A9469F760957095809590951A
:101530009B01AC01BD01CF0108950E94DF0AA59F68
:10154000900DB49F900DA49F800D911D11240895BE
:101550002F923F924F925F926F927F928F929F92C3
:10156000AF92BF92CF92DF92EF92FF920F931F93B1
:10157000CF93DF93CDB7DEB7CA1BDB0B0FB6F89462
:10158000DEBF0FBECDBF09942A88398848885F84A2
:101590006E847D848C849B84AA84B984C884DF8013
:1015A000EE80FD800C811B81AA81B981CE0FD11DF7
:1015B0000FB6F894DEBF0FBECDBFED010895A29F18
:1015C000B001B39FC001A39F700D811D1124911D17
:1015D000B29F700D811D1124911D089597FB072E58
:1015E00016F4009407D077FD09D00E94020B07FC87
:1015F00005D03EF4909581959F4F08957095619523
:101600007F4F0895AA1BBB1B51E107C0AA1FBB1F38
:10161000A617B70710F0A61BB70B881F991F5A957E
:10162000A9F780959095BC01CD010895EE0FFF1F9D
:101630000590F491E02D09940F931F93CF93DF93BE
:101640008230910510F482E090E0E0916902F0911F
:101650006A0230E020E0B0E0A0E0309799F4211574
:10166000310509F44AC0281B390B24303105D8F55F
:101670008A819B816115710589F1FB0193838283C6
:10168000FE0111C040815181028113814817590721
:10169000E0F04817590799F4109761F012960C93EF
:1016A000129713961C933296CF01DF91CF911F9121
:1016B0000F9108950093690210936A02F4CF2115E7
:1016C000310551F04217530738F0A901DB019A01A7
:1016D000BD01DF01F801C1CFEF01F9CF90936A029C
:1016E00080936902CDCFFE01E20FF31F81939193A6
:1016F0002250310939832883D7CF20916702309156
:101700006802232B41F420910201309103013093B0
:101710006802209367022091000130910101211598
:10172000310541F42DB73EB74091040150910501B8
:10173000241B350BE0916702F0916802E217F30772
:10174000A0F42E1B3F0B2817390778F0AC014E5F31
:101750005F4F2417350748F04E0F5F1F5093680204
:1017600040936702819391939FCFF0E0E0E09CCF9C
:10177000CF93DF930097E9F0FC0132971382128236
:10178000A0916902B0916A02ED0130E020E010976B
:10179000A1F420813181820F931F20916702309143
:1017A00068022817390709F061C0F0936802E093D6
:1017B0006702DF91CF910895EA01CE17DF07E8F5C0
:1017C0004A815B819E0141155105B1F7E901FB8317
:1017D000EA8349915991C40FD51FEC17FD0761F4B5
:1017E000808191810296840F951FE90199838883F6
:1017F000828193819B838A83F0E0E0E012968D9151
:101800009C9113970097B9F52D913C911197CD01BB
:101810000296820F931F2091670230916802281769
:10182000390739F6309751F510926A021092690221
:10183000B0936802A0936702BCCFD383C283408178
:101840005181840F951FC817D90761F44E5F5F4F10
:1018500088819981480F591F518340838A819B81D8
:10186000938382832115310509F0B0CFF0936A028A
:10187000E09369029ECFFD01DC01C0CF138212828A
:10188000D7CFB0E0A0E0E7E4FCE00C94AA0A8C011A
:10189000009751F4CB010E941C0B8C01C801CDB7FD
:1018A000DEB7E0E10C94C60AFC01E60FF71F9C01CD
:1018B00022503109E217F30708F49DC0D901CD91F8
:1018C000DC911197C617D70798F0C530D10530F3D2
:1018D000CE0104978617970708F3C61BD70B2297EC
:1018E000C193D1936D937C93CF010E94B80BD6CF57
:1018F0005B01AC1ABD0A4C018C0E9D1EA0916902C1
:10190000B0916A02512C412CF12CE12C109731F549
:1019100080916702909168028815990509F05CC072
:101920004616570608F058C08091000190910101B9
:10193000009741F48DB79EB7409104015091050185
:10194000841B950BE817F90708F055C0F09368025F
:10195000E0936702F90171836083A0CF8D919C9120
:10196000119712966C90129713967C901397A81566
:10197000B90559F56C0142E0C40ED11CCA14DB0450
:1019800020F1AC014A195B09DA011296159780F033
:101990006282738251834083D9016D937C93E114F9
:1019A000F10471F0D7011396FC93EE93129776CF62
:1019B00022968C0F9D1FF90191838083F301EFCF55
:1019C000F0936A02E093690269CF4816590608F459
:1019D0002C017D01D3019ACFCB010E941C0B7C010D
:1019E000009749F0AE01B8010E94FE0CC8010E94A8
:1019F000B80B870153CF10E000E050CFFB01DC01B2
:101A000002C001900D9241505040D8F70895FB015B
:101A1000DC0101900D920020E1F70895FB01519146
:101A20005523A9F0BF01DC014D9145174111E1F7A4
:101A300059F4CD010190002049F04D91401541111C
:101A4000C9F3FB014111EFCF81E090E001970895C8
:101A500010E0C2E6D0E004C0FE010E94160B219601
:0A1A6000C336D107C9F7F894FFCF91
:101A6A0000006B028000000000000F022F015C01E1
:101A7A005C02CD016B01BF010000000095022F013D
:101A8A002A039402F10209037C02456E74657220EE
:101A9A00415420636F6D6D616E64733A000D0A00E4
:101AAA00436861696E652072656375004F4B002B50
:081ABA00494E51002C200000F0
:00000001FF
